:03000000020100FA
:1001000012014E740A12811212011F1201317F1462
:10011000308DFD758C4CC28DDFF6D28E80ED007572
:100120008905758C4C758A00D28C758D00758B0095
:100130002212810C7400128104743A12810274003C
:10014000128104743A128102E58B12810422128119
:100150000C12017AF8120187128104743A1281029A
:1001600012017AF9120187128104743A1281021283
:10017000017AFA1201871281042212811C75F00A99
:10018000A4F912811C292275F00A84C425F0227575
:07019000F00A84C425F022EF
:00000001FF
