:03000000020100FA
:1001000012016C758901758C4C758A00D28C1201B4
:100110004912012C120136120140B2977F14308D22
:10012000FD758C4CC28DDFF60A80E300EAC3943B78
:1001300040037A000922E9C3943C40037900082275
:10014000E8C39418400278002212810CE81201B72B
:10015000128104743A128102E91201B71281047407
:100160003A128102EA1201B71281042212810C12A2
:1001700001AAF8C3941950F4E81201B7128104746B
:100180003A1281021201AAF9C3943D50F7E9120113
:10019000B7128104743A1281021201AAFAC3943D83
:1001A00050E2EA1201B71281042212811C75F00A92
:1001B000A4FD12811C2D2275F00A84C425F022753D
:0701C000F00A84C425F022BF
:00000001FF
