:03000000020100FA
:10010000120160758901758C4C758A00D28C1201C0
:100110003D120129120133B2977F14308DFD758C89
:100120004CC28DDFF60A80E600EAC3943B40037AB6
:10013000000922E9C3943C40037900082212810C93
:10014000E81201AB128104743A128102E91201AB88
:10015000128104743A128102EA1201AB1281042264
:1001600012810C12019EF8C3941950F4E81201ABED
:10017000128104743A12810212019EF9C3943D5017
:10018000F7E91201AB128104743A12810212019E46
:10019000FAC3943D50E2EA1201AB128104221281AB
:1001A0001C75F00AA4FD12811C2D2275F00A84C46E
:0B01B00025F02275F00A84C425F0221F
:00000001FF
