:03000000020100FA
:100100001201831201C1758911758C4C758A00D258
:100110008C12016012014312014D120157B2977FF8
:1001200014308DFD758C4CC28DDFF60AE8C39BB48C
:1001300000DFE9C39CB400D9EDC39DB400D3B297EE
:1001400080FE00EAC3943B40037A000922E9C3948D
:100150003C400379000822E8C3941840027800224A
:1001600012810CE812020C128104743A128102E925
:1001700012020C128104743A128102EA12020C1269
:1001800081042212810C1201FFF8C3941950F4E883
:1001900012020C128104743A1281021201FFF9C397
:1001A000943D50F7E912020C128104743A12810254
:1001B0001201FFFAC3943D50F7EA12020C128104B7
:1001C0002212810C1201FFFBC3941950F4EB1202AE
:1001D0000C128104743A1281021201FFFCC3943D97
:1001E00050F7EC12020C128104743A1281021201CF
:1001F000FFFDC3943D50F7ED12020C128104221250
:10020000811C75F00AA4FD12811C2D2275F00A8450
:0C021000C425F02275F00A84C425F022F9
:00000001FF
