:03000000020100FA
:1001000012810C12811CF81201DB12810412811C75
:10011000B40A1A742B12810212811CF91201DB122B
:100120008104743D128102E9C328020176B40C27D0
:10013000742D12810212811CF91201DB12810474E8
:100140003D128102E8C399502DF404F8742D1281F8
:1001500002E81201DB8023B40B2F742A12810212F1
:10016000811CF91201DB128104743D128102E988BD
:10017000F0C3A4F88004F81201DB128104740A129F
:10018000811212810C02010000C3B40DE9742F1218
:10019000810212811CF91201DB128104E9B4001002
:1001A00012810C7458128102740A12811202010029
:1001B000743D128102E889F0C384ABF0F81201DBD0
:1001C0001281047452128102EB1201DB1281047459
:1001D0000A12811212810C0201000075F00A84C417
:0A01E00025F02275F00A84C425F012
:00000001FF
